{
  "contractName": "LocationDatabase",
  "abi": [
    {
      "inputs": [
        {
          "internalType": "uint256",
          "name": "",
          "type": "uint256"
        }
      ],
      "name": "locations",
      "outputs": [
        {
          "internalType": "string",
          "name": "name",
          "type": "string"
        },
        {
          "internalType": "string",
          "name": "image",
          "type": "string"
        },
        {
          "internalType": "string",
          "name": "desc",
          "type": "string"
        },
        {
          "internalType": "int256",
          "name": "lat",
          "type": "int256"
        },
        {
          "internalType": "int256",
          "name": "lon",
          "type": "int256"
        }
      ],
      "stateMutability": "view",
      "type": "function",
      "constant": true
    },
    {
      "inputs": [
        {
          "internalType": "string",
          "name": "_name",
          "type": "string"
        },
        {
          "internalType": "string",
          "name": "_image",
          "type": "string"
        },
        {
          "internalType": "int256",
          "name": "_lat",
          "type": "int256"
        },
        {
          "internalType": "int256",
          "name": "_lon",
          "type": "int256"
        },
        {
          "internalType": "string",
          "name": "_desc",
          "type": "string"
        }
      ],
      "name": "addLocation",
      "outputs": [],
      "stateMutability": "nonpayable",
      "type": "function"
    },
    {
      "inputs": [],
      "name": "getLocationsCount",
      "outputs": [
        {
          "internalType": "uint256",
          "name": "",
          "type": "uint256"
        }
      ],
      "stateMutability": "view",
      "type": "function",
      "constant": true
    },
    {
      "inputs": [
        {
          "internalType": "uint256",
          "name": "index",
          "type": "uint256"
        }
      ],
      "name": "getLocation",
      "outputs": [
        {
          "internalType": "string",
          "name": "name",
          "type": "string"
        },
        {
          "internalType": "string",
          "name": "image",
          "type": "string"
        },
        {
          "internalType": "int256",
          "name": "lat",
          "type": "int256"
        },
        {
          "internalType": "int256",
          "name": "lon",
          "type": "int256"
        },
        {
          "internalType": "string",
          "name": "desc",
          "type": "string"
        }
      ],
      "stateMutability": "view",
      "type": "function",
      "constant": true
    }
  ],
  "bytecode": "0x608060405234801561001057600080fd5b50610b91806100206000396000f3fe608060405234801561001057600080fd5b506004361061004c5760003560e01c8063629f94501461005157806372feae811461006f5780637f7b13931461008b578063b9e0db35146100bf575b600080fd5b6100596100f3565b6040516100669190610692565b60405180910390f35b6100896004803603810190610084919061083d565b6100ff565b005b6100a560048036038101906100a09190610938565b6101d7565b6040516100b69594939291906109fc565b60405180910390f35b6100d960048036038101906100d49190610938565b6103c9565b6040516100ea959493929190610a64565b60405180910390f35b60008080549050905090565b6101076105a7565b85816000018190525084816020018190525083816060018181525050828160800181815250508181604001819052506000819080600181540180825580915050600190039060005260206000209060050201600090919091909150600082015181600001908051906020019061017e9291906105d6565b50602082015181600101908051906020019061019b9291906105d6565b5060408201518160020190805190602001906101b89291906105d6565b5060608201518160030155608082015181600401555050505050505050565b606080600080606060008087815481106101f4576101f3610acc565b5b9060005260206000209060050201905080600001805461021390610b2a565b80601f016020809104026020016040519081016040528092919081815260200182805461023f90610b2a565b801561028c5780601f106102615761010080835404028352916020019161028c565b820191906000526020600020905b81548152906001019060200180831161026f57829003601f168201915b505050505095508060010180546102a290610b2a565b80601f01602080910402602001604051908101604052809291908181526020018280546102ce90610b2a565b801561031b5780601f106102f05761010080835404028352916020019161031b565b820191906000526020600020905b8154815290600101906020018083116102fe57829003601f168201915b50505050509450806003015493508060040154925080600201805461033f90610b2a565b80601f016020809104026020016040519081016040528092919081815260200182805461036b90610b2a565b80156103b85780601f1061038d576101008083540402835291602001916103b8565b820191906000526020600020905b81548152906001019060200180831161039b57829003601f168201915b505050505091505091939590929450565b600081815481106103d957600080fd5b90600052602060002090600502016000915090508060000180546103fc90610b2a565b80601f016020809104026020016040519081016040528092919081815260200182805461042890610b2a565b80156104755780601f1061044a57610100808354040283529160200191610475565b820191906000526020600020905b81548152906001019060200180831161045857829003601f168201915b50505050509080600101805461048a90610b2a565b80601f01602080910402602001604051908101604052809291908181526020018280546104b690610b2a565b80156105035780601f106104d857610100808354040283529160200191610503565b820191906000526020600020905b8154815290600101906020018083116104e657829003601f168201915b50505050509080600201805461051890610b2a565b80601f016020809104026020016040519081016040528092919081815260200182805461054490610b2a565b80156105915780601f1061056657610100808354040283529160200191610591565b820191906000526020600020905b81548152906001019060200180831161057457829003601f168201915b5050505050908060030154908060040154905085565b6040518060a0016040528060608152602001606081526020016060815260200160008152602001600081525090565b8280546105e290610b2a565b90600052602060002090601f016020900481019282610604576000855561064b565b82601f1061061d57805160ff191683800117855561064b565b8280016001018555821561064b579182015b8281111561064a57825182559160200191906001019061062f565b5b509050610658919061065c565b5090565b5b8082111561067557600081600090555060010161065d565b5090565b6000819050919050565b61068c81610679565b82525050565b60006020820190506106a76000830184610683565b92915050565b6000604051905090565b600080fd5b600080fd5b600080fd5b600080fd5b6000601f19601f8301169050919050565b7f4e487b7100000000000000000000000000000000000000000000000000000000600052604160045260246000fd5b610714826106cb565b810181811067ffffffffffffffff82111715610733576107326106dc565b5b80604052505050565b60006107466106ad565b9050610752828261070b565b919050565b600067ffffffffffffffff821115610772576107716106dc565b5b61077b826106cb565b9050602081019050919050565b82818337600083830152505050565b60006107aa6107a584610757565b61073c565b9050828152602081018484840111156107c6576107c56106c6565b5b6107d1848285610788565b509392505050565b600082601f8301126107ee576107ed6106c1565b5b81356107fe848260208601610797565b91505092915050565b6000819050919050565b61081a81610807565b811461082557600080fd5b50565b60008135905061083781610811565b92915050565b600080600080600060a08688031215610859576108586106b7565b5b600086013567ffffffffffffffff811115610877576108766106bc565b5b610883888289016107d9565b955050602086013567ffffffffffffffff8111156108a4576108a36106bc565b5b6108b0888289016107d9565b94505060406108c188828901610828565b93505060606108d288828901610828565b925050608086013567ffffffffffffffff8111156108f3576108f26106bc565b5b6108ff888289016107d9565b9150509295509295909350565b61091581610679565b811461092057600080fd5b50565b6000813590506109328161090c565b92915050565b60006020828403121561094e5761094d6106b7565b5b600061095c84828501610923565b91505092915050565b600081519050919050565b600082825260208201905092915050565b60005b8381101561099f578082015181840152602081019050610984565b838111156109ae576000848401525b50505050565b60006109bf82610965565b6109c98185610970565b93506109d9818560208601610981565b6109e2816106cb565b840191505092915050565b6109f681610807565b82525050565b600060a0820190508181036000830152610a1681886109b4565b90508181036020830152610a2a81876109b4565b9050610a3960408301866109ed565b610a4660608301856109ed565b8181036080830152610a5881846109b4565b90509695505050505050565b600060a0820190508181036000830152610a7e81886109b4565b90508181036020830152610a9281876109b4565b90508181036040830152610aa681866109b4565b9050610ab560608301856109ed565b610ac260808301846109ed565b9695505050505050565b7f4e487b7100000000000000000000000000000000000000000000000000000000600052603260045260246000fd5b7f4e487b7100000000000000000000000000000000000000000000000000000000600052602260045260246000fd5b60006002820490506001821680610b4257607f821691505b602082108103610b5557610b54610afb565b5b5091905056fea2646970667358221220dd26135b059488e8749113b53c082fb8ef20ceba7aefede1974c63ba3afc286164736f6c634300080d0033",
  "immutableReferences": {},
  "source": "// SPDX-License-Identifier: MIT \npragma solidity ^0.8.0;\n\ncontract LocationDatabase {\n  struct Location {\n    string name;\n    string image;\n    string desc;\n    int lat;\n    int lon;\n  }\n\n  Location[] public locations;\n\n  function addLocation(string memory _name, string memory _image, int _lat, int _lon, string memory _desc) public {\n    Location memory newLocation;\n    newLocation.name = _name;\n    newLocation.image = _image;\n    newLocation.lat = _lat;\n    newLocation.lon = _lon;\n    newLocation.desc = _desc;\n    locations.push(newLocation);\n  } \n\n  function getLocationsCount() public view returns (uint256) {\n    return locations.length;\n  }\n\n  function getLocation(uint index) public view returns (string memory name, string memory image, int256 lat, int256 lon, string memory desc) {\n    Location storage location = locations[index];\n    name = location.name;\n    image = location.image;\n    lat = location.lat;\n    lon = location.lon;\n    desc = location.desc;\n  }\n}\n\n// \"Pavement Cracked\", \"https://cdn.pixabay.com/photo/2019/10/04/10/27/pavers-4525242_960_720.jpg\", 469600500, -740403550\n// \"Semaforo Daado\", \"https://periodismopublico.com/wp-content/uploads/2021/06/Semaforo-vandalizado-Bogota-protestas.jpg\",  461471300, -740692490, \"Se encuentra semaforo daado sobre el Museo nacional\"",
  "sourcePath": "/mnt/c/Users/USER/Documents/Universidad/Redes de Comunicaciones I/ProyectoFinal/LocalBlockChain/contracts/LocationDB.sol",
  "compiler": {
    "name": "solc",
    "version": "0.8.13+commit.abaa5c0e.Emscripten.clang"
  },
  "schemaVersion": "3.4.14",
  "updatedAt": "2023-05-27T20:04:16.090Z",
  "networkType": "ethereum",
  "devdoc": {
    "kind": "dev",
    "methods": {},
    "version": 1
  },
  "userdoc": {
    "kind": "user",
    "methods": {},
    "version": 1
  }
}